:100000000C9434000C9451000C9451000C94510049
:100010000C9451000C9451000C9451000C9451001C
:100020000C9451000C9451000C9451000C9451000C
:100030000C9451000C9451000C9451000C945100FC
:100040000C9451000C9451000C9451000C945100EC
:100050000C9451000C9451000C9451000C945100DC
:100060000C9451000C94510011241FBECFEFD8E026
:10007000DEBFCDBF11E0A0E0B1E0E4E8F2E002C0F5
:1000800005900D92AE30B107D9F721E0AEE0B1E0B6
:1000900001C01D92AA31B207E1F70E9436010C940B
:1000A00040010C940000CF93C82F8A3051F080910A
:1000B000C00085FFFCCFC093C60080E090E0CF91E8
:1000C000089560E070E08DE00E945300F0CF109240
:1000D000C50089E18093C4001092C00088E180933C
:1000E000C10086E08093C20080E091E09093170108
:1000F0008093160108958091C00087FFFCCF809106
:10010000C6000895A99B0AC0809112019091130125
:1001100001969093130180931201A99A8091120184
:10012000909113010B9744F095B184E0892785B92C
:100130001092130110921201089510921101109261
:1001400010012FEF81EE94E0215080409040E1F7C4
:1001500000C000008091100187BD80911001909136
:100160001101499690931101809310018F3F9105E1
:1001700041F33CF38FEF90E09093110180931001D5
:100180002FEF81EE94E0215080409040E1F700C0D5
:1001900000008091100187BD8091100190911101A4
:1001A0000A97909311018093100197FFE9CF08956A
:1001B000B99B0EC080910E0190910F0101968F3F67
:1001C00091053CF490930F0180930E0187BDB99A7D
:1001D000089510920F0110920E0180E0F7CF8091E8
:1001E0000E0190910F0101968F3F91052CF4909391
:1001F0000F0180930E01089510920F0110920E01CD
:1002000080E0089582E084BD85B5877F85BD85B592
:10021000856085BD85B58D7F85BD8CE987BD0895D9
:1002200080E884BD84B58F7B84BD84B5836084BD44
:1002300085B5877F85BD85B58F7785BD85B58F7B76
:1002400085BD85B5836085BD08950E94100182E05B
:100250008093B000E1EBF0E08081877F8083808134
:10026000876080838AEF8093B30008950E946700BF
:100270000E941001569A0E9425010E94D800FDCFCD
:04028000F894FFCF20
:0E028400000000020000000053000000000017
:00000001FF
